S0100000426F6F7374696E792E73726563BD
S11300000EC028C027C026C025C024C023C022C0DB
S113001022C020C01FC01EC01DC01CC01BC0112494
S11300201FBECFE5D2E0DEBFCDBF10E0A0E6B0E05A
S1130030E8E1F2E002C005900D92A236B107D9F7CB
S113004020E0A2E6B0E001C01D92A836B207E1F7B5
S11300507DD0E0C0D5CF1F920F920FB60F9211241E
S11300602F933F934F935F936F937F938F939F93BC
S1130070AF93BF93EF93FF93E4E6F0E08081918127
S11300809383828325B18FEB90E0821B9109918346
S113009080832091600030916100280F391F3093D4
S11300A0610020936000121613062CF41092610074
S11300B01092600009C02115364F34F420E036EF69
S11300C030936100209360009C01220F331F220FA4
S11300D0331F820F931F22273327281B390B80914C
S11300E06000909161006AE070E06DD0C901861BE8
S11300F0970B823391053CF482E390E09093630084
S1130100809362000FC08F3F910509F02CF4909307
S113011063008093620006C08FEF90E090936300C9
S113012080936200809162008BBDFF91EF91BF913B
S1130130AF919F918F917F916F915F914F913F917B
S11301402F910F900FBE0F901F901895CF93DF93B0
S113015000D0CDB7DEB71A82198289819A818036A0
S11301609A4E50F489819A8101969A838983898170
S11301709A8180369A4EB0F387B5826087BD07B402
S113018000FEFDCF87B5846087BD8CB580658CBDCE
S1130190BC9AC49A80B7816080BF8FEF8BBD87B152
S11301A0806987B93D9A87B1836087B98EEA86B939
S11301B013B88CB58CBD1ABC8EEF89BD85E083BFA6
S11301C07894369AFFCF97FB072E16F4009406D046
S11301D077FD08D00BD007FC05D03EF490958195AF
S11301E09F4F0895709561957F4F0895AA1BBB1B7F
S11301F051E107C0AA1FBB1FA617B70710F0A61B23
S1130200B70B881F991F5A95A9F780959095BC0143
S10B0210CD010895F894FFCF1D
S10502180018C8
S9030000FC
